{
  "contractName": "Metamark",
  "abi": [
    {
      "inputs": [],
      "stateMutability": "nonpayable",
      "type": "constructor"
    },
    {
      "anonymous": false,
      "inputs": [
        {
          "indexed": true,
          "internalType": "address",
          "name": "wallet",
          "type": "address"
        },
        {
          "indexed": false,
          "internalType": "string",
          "name": "nickname",
          "type": "string"
        }
      ],
      "name": "CustomerRegistered",
      "type": "event"
    },
    {
      "anonymous": false,
      "inputs": [
        {
          "indexed": true,
          "internalType": "address",
          "name": "wallet",
          "type": "address"
        },
        {
          "indexed": false,
          "internalType": "string",
          "name": "name",
          "type": "string"
        },
        {
          "indexed": false,
          "internalType": "string",
          "name": "company",
          "type": "string"
        }
      ],
      "name": "ManufacturerRegistered",
      "type": "event"
    },
    {
      "inputs": [
        {
          "internalType": "address",
          "name": "",
          "type": "address"
        }
      ],
      "name": "customers",
      "outputs": [
        {
          "internalType": "string",
          "name": "nickname",
          "type": "string"
        },
        {
          "internalType": "address",
          "name": "customer_wallet",
          "type": "address"
        },
        {
          "internalType": "bool",
          "name": "isRegistered",
          "type": "bool"
        }
      ],
      "stateMutability": "view",
      "type": "function",
      "constant": true
    },
    {
      "inputs": [
        {
          "internalType": "address",
          "name": "",
          "type": "address"
        }
      ],
      "name": "manufacturers",
      "outputs": [
        {
          "internalType": "string",
          "name": "owner",
          "type": "string"
        },
        {
          "internalType": "string",
          "name": "company",
          "type": "string"
        },
        {
          "internalType": "address",
          "name": "manufacturer_wallet",
          "type": "address"
        },
        {
          "internalType": "bool",
          "name": "isRegistered",
          "type": "bool"
        }
      ],
      "stateMutability": "view",
      "type": "function",
      "constant": true
    },
    {
      "inputs": [
        {
          "internalType": "string",
          "name": "_owner",
          "type": "string"
        },
        {
          "internalType": "string",
          "name": "_company",
          "type": "string"
        }
      ],
      "name": "registerManufacturer",
      "outputs": [],
      "stateMutability": "nonpayable",
      "type": "function"
    },
    {
      "inputs": [
        {
          "internalType": "string",
          "name": "_nickname",
          "type": "string"
        }
      ],
      "name": "registerCustomer",
      "outputs": [],
      "stateMutability": "nonpayable",
      "type": "function"
    },
    {
      "inputs": [
        {
          "internalType": "address",
          "name": "_wallet",
          "type": "address"
        }
      ],
      "name": "getManufacturer",
      "outputs": [
        {
          "internalType": "string",
          "name": "owner",
          "type": "string"
        },
        {
          "internalType": "string",
          "name": "companyname",
          "type": "string"
        }
      ],
      "stateMutability": "view",
      "type": "function",
      "constant": true
    }
  ],
  "bytecode": "0x608060405234801561001057600080fd5b50610d7b806100206000396000f3fe608060405234801561001057600080fd5b50600436106100575760003560e01c80631378d8061461005c578063191bcef61461007857806330b15caa146100a9578063336989ae146100c55780636b5eb09c146100f7575b600080fd5b61007660048036038101906100719190610964565b61012a565b005b610092600480360381019061008d919061093b565b610227565b6040516100a0929190610ae6565b60405180910390f35b6100c360048036038101906100be91906109a5565b610420565b005b6100df60048036038101906100da919061093b565b6105cf565b6040516100ee93929190610aa8565b60405180910390f35b610111600480360381019061010c919061093b565b6106ae565b6040516101219493929190610b1d565b60405180910390f35b60405180606001604052808281526020013373ffffffffffffffffffffffffffffffffffffffff16815260200160011515815250600160003373ffffffffffffffffffffffffffffffffffffffff1673ffffffffffffffffffffffffffffffffffffffff16815260200190815260200160002060008201518160000190805190602001906101b992919061081b565b5060208201518160010160006101000a81548173ffffffffffffffffffffffffffffffffffffffff021916908373ffffffffffffffffffffffffffffffffffffffff16021790555060408201518160010160146101000a81548160ff02191690831515021790555090505050565b60608060008060008573ffffffffffffffffffffffffffffffffffffffff1673ffffffffffffffffffffffffffffffffffffffff16815260200190815260200160002060405180608001604052908160008201805461028590610c8d565b80601f01602080910402602001604051908101604052809291908181526020018280546102b190610c8d565b80156102fe5780601f106102d3576101008083540402835291602001916102fe565b820191906000526020600020905b8154815290600101906020018083116102e157829003601f168201915b5050505050815260200160018201805461031790610c8d565b80601f016020809104026020016040519081016040528092919081815260200182805461034390610c8d565b80156103905780601f1061036557610100808354040283529160200191610390565b820191906000526020600020905b81548152906001019060200180831161037357829003601f168201915b505050505081526020016002820160009054906101000a900473ffffffffffffffffffffffffffffffffffffffff1673ffffffffffffffffffffffffffffffffffffffff1673ffffffffffffffffffffffffffffffffffffffff1681526020016002820160149054906101000a900460ff1615151515815250509050806000015181602001519250925050915091565b6000803373ffffffffffffffffffffffffffffffffffffffff1673ffffffffffffffffffffffffffffffffffffffff16815260200190815260200160002060020160149054906101000a900460ff16156104af576040517f08c379a00000000000000000000000000000000000000000000000000000000081526004016104a690610b70565b60405180910390fd5b60405180608001604052808381526020018281526020013373ffffffffffffffffffffffffffffffffffffffff168152602001600115158152506000803373ffffffffffffffffffffffffffffffffffffffff1673ffffffffffffffffffffffffffffffffffffffff168152602001908152602001600020600082015181600001908051906020019061054392919061081b565b50602082015181600101908051906020019061056092919061081b565b5060408201518160020160006101000a81548173ffffffffffffffffffffffffffffffffffffffff021916908373ffffffffffffffffffffffffffffffffffffffff16021790555060608201518160020160146101000a81548160ff0219169083151502179055509050505050565b60016020528060005260406000206000915090508060000180546105f290610c8d565b80601f016020809104026020016040519081016040528092919081815260200182805461061e90610c8d565b801561066b5780601f106106405761010080835404028352916020019161066b565b820191906000526020600020905b81548152906001019060200180831161064e57829003601f168201915b5050505050908060010160009054906101000a900473ffffffffffffffffffffffffffffffffffffffff16908060010160149054906101000a900460ff16905083565b60006020528060005260406000206000915090508060000180546106d190610c8d565b80601f01602080910402602001604051908101604052809291908181526020018280546106fd90610c8d565b801561074a5780601f1061071f5761010080835404028352916020019161074a565b820191906000526020600020905b81548152906001019060200180831161072d57829003601f168201915b50505050509080600101805461075f90610c8d565b80601f016020809104026020016040519081016040528092919081815260200182805461078b90610c8d565b80156107d85780601f106107ad576101008083540402835291602001916107d8565b820191906000526020600020905b8154815290600101906020018083116107bb57829003601f168201915b5050505050908060020160009054906101000a900473ffffffffffffffffffffffffffffffffffffffff16908060020160149054906101000a900460ff16905084565b82805461082790610c8d565b90600052602060002090601f0160209004810192826108495760008555610890565b82601f1061086257805160ff1916838001178555610890565b82800160010185558215610890579182015b8281111561088f578251825591602001919060010190610874565b5b50905061089d91906108a1565b5090565b5b808211156108ba5760008160009055506001016108a2565b5090565b60006108d16108cc84610bc1565b610b90565b9050828152602081018484840111156108e957600080fd5b6108f4848285610c4b565b509392505050565b60008135905061090b81610d2e565b92915050565b600082601f83011261092257600080fd5b81356109328482602086016108be565b91505092915050565b60006020828403121561094d57600080fd5b600061095b848285016108fc565b91505092915050565b60006020828403121561097657600080fd5b600082013567ffffffffffffffff81111561099057600080fd5b61099c84828501610911565b91505092915050565b600080604083850312156109b857600080fd5b600083013567ffffffffffffffff8111156109d257600080fd5b6109de85828601610911565b925050602083013567ffffffffffffffff8111156109fb57600080fd5b610a0785828601610911565b9150509250929050565b610a1a81610c0d565b82525050565b610a2981610c1f565b82525050565b6000610a3a82610bf1565b610a448185610bfc565b9350610a54818560208601610c5a565b610a5d81610d1d565b840191505092915050565b6000610a75601283610bfc565b91507f416c7265616479205265676973746572656400000000000000000000000000006000830152602082019050919050565b60006060820190508181036000830152610ac28186610a2f565b9050610ad16020830185610a11565b610ade6040830184610a20565b949350505050565b60006040820190508181036000830152610b008185610a2f565b90508181036020830152610b148184610a2f565b90509392505050565b60006080820190508181036000830152610b378187610a2f565b90508181036020830152610b4b8186610a2f565b9050610b5a6040830185610a11565b610b676060830184610a20565b95945050505050565b60006020820190508181036000830152610b8981610a68565b9050919050565b6000604051905081810181811067ffffffffffffffff82111715610bb757610bb6610cee565b5b8060405250919050565b600067ffffffffffffffff821115610bdc57610bdb610cee565b5b601f19601f8301169050602081019050919050565b600081519050919050565b600082825260208201905092915050565b6000610c1882610c2b565b9050919050565b60008115159050919050565b600073ffffffffffffffffffffffffffffffffffffffff82169050919050565b82818337600083830152505050565b60005b83811015610c78578082015181840152602081019050610c5d565b83811115610c87576000848401525b50505050565b60006002820490506001821680610ca557607f821691505b60208210811415610cb957610cb8610cbf565b5b50919050565b7f4e487b7100000000000000000000000000000000000000000000000000000000600052602260045260246000fd5b7f4e487b7100000000000000000000000000000000000000000000000000000000600052604160045260246000fd5b6000601f19601f8301169050919050565b610d3781610c0d565b8114610d4257600080fd5b5056fea26469706673582212207ae1753bc709eaa87630d36e3c52cea26eec449153bf3f04367405f2b7635b2464736f6c63430008000033",
  "immutableReferences": {},
  "source": "// SPDX-License-Identifier: MIT\npragma solidity ^0.8.0;\ncontract Metamark {\n\n    struct Manufacturer{\n        string owner;\n        string company;\n        address manufacturer_wallet;\n        bool isRegistered;\n    }\n\n    struct Customer{\n        string nickname;\n        address customer_wallet;\n        bool isRegistered;\n    }\n\n\n    event ManufacturerRegistered(address indexed wallet,string name , string company);\n    event CustomerRegistered(address indexed wallet,string nickname );\n\n    mapping(address=>Manufacturer) public manufacturers;\n    mapping(address=>Customer) public customers;\n\n    constructor() {\n\n    }\n\n    function registerManufacturer(string memory _owner ,string memory _company ) public   {\n        require(!manufacturers[msg.sender].isRegistered,\"Already Registered\");\n        manufacturers[msg.sender] = Manufacturer({\n            owner :_owner,\n            company:_company,\n            manufacturer_wallet:msg.sender,\n            isRegistered : true});\n\n    }\n\n\n    function registerCustomer(string memory _nickname ) public   {\n        customers[msg.sender] = Customer({\n            nickname:_nickname,\n            customer_wallet:msg.sender,\n            isRegistered : true});\n\n    }\n\n\n    function getManufacturer(address _wallet)  public view returns(string memory owner ,string memory companyname){\n        Manufacturer memory m = manufacturers[_wallet];\n        return (m.owner,m.company);\n    }\n}",
  "sourcePath": "/home/prashik/Projects/React/Metamark/metamark/contracts/Metamark.sol",
  "compiler": {
    "name": "solc",
    "version": "0.8.0+commit.c7dfd78e.Emscripten.clang"
  },
  "schemaVersion": "3.4.16",
  "updatedAt": "2025-06-05T12:54:53.751Z",
  "networkType": "ethereum",
  "devdoc": {
    "kind": "dev",
    "methods": {},
    "version": 1
  },
  "userdoc": {
    "kind": "user",
    "methods": {},
    "version": 1
  }
}